:020000040800F2
:100000000000012029170008A9160008B1160008F1
:10001000B9160008C1160008C91600080000000043
:100020000000000000000000000000000166000861
:10003000D11600080000000051680008B9680008E7
:100040007917000879170008791700087917000850
:100050007917000879170008791700087917000840
:100060007917000879170008791700087917000830
:100070007917000879170008791700087917000820
:100080007917000879170008791700087917000810
:100090007917000879170008791700087917000800
:1000A00079170008E1160008791700087917000889
:1000B00079170008791700087917000879170008E0
:1000C00079170008791700087917000879170008D0
:1000D00079170008791700087917000879170008C0
:1000E000F516000879170008791700087917000835
:1000F00079170008791700087917000879170008A0
:1001000079170008000000000000000079170008BF
:10011000791700087917000879170008791700087F
:10012000791700087917000879170008791700086F
:10013000791700087917000800000000000000008F
:1001400079170008791700087917000800000000E7
:10015000000000000000000000000000000000009F
:10016000791700087917000879170008791700082F
:10017000791700087917000879170008791700081F
:10018000791700087917000800000000000000003F
:0401900079170008D3
:1001A00010B5054C237833B9044B13B10448AFF3B1
:1001B00000800123237010BDF0000020000000002B
:1001C000EC95000808B5034B1BB103490348AFF396
:1001D000008008BD00000000F4000020EC9500083D
:1001E00081F0004102E000BF83F0004330B54FEAE8
:1001F00041044FEA430594EA050F08BF90EA020F55
:100200001FBF54EA000C55EA020C7FEA645C7FEAE7
:10021000655C00F0E2804FEA5454D4EB5555B8BF0A
:100220006D420CDD2C4480EA020281EA030382EA7B
:10023000000083EA010180EA020281EA0303362D0D
:1002400088BF30BD11F0004F4FEA01314FF4801CE0
:100250004CEA113102D0404261EB410113F0004FF2
:100260004FEA03334CEA133302D0524263EB4303A9
:1002700094EA050F00F0A780A4F10104D5F1200E47
:100280000DDB02FA0EFC22FA05F2801841F10001A2
:1002900003FA0EF2801843FA05F359410EE0A5F176
:1002A00020050EF1200E012A03FA0EFC28BF4CF0A7
:1002B000020C43FA05F3C01851EBE37101F000455D
:1002C00007D54FF0000EDCF1000C7EEB00006EEB6A
:1002D0000101B1F5801F1BD3B1F5001F0CD34908F4
:1002E0005FEA30004FEA3C0C04F101044FEA44524B
:1002F00012F5800F80F09A80BCF1004F08BF5FEAD2
:10030000500C50F1000041EB045141EA050130BDB1
:100310005FEA4C0C404141EB0101013C28BFB1F5C3
:10032000801FE9D291F0000F04BF01460020B1FA0E
:1003300081F308BF2033A3F10B03B3F120020CDAE1
:100340000C3208DD02F1140CC2F10C0201FA0CF0BF
:1003500021FA02F10CE002F11402D8BFC2F1200C24
:1003600001FA02F120FA0CFCDCBF41EA0C019040DA
:10037000E41AA2BF01EB0451294330BD6FEA040423
:100380001F3C1CDA0C340EDC04F11404C4F120020E
:1003900020FA04F001FA02F340EA030021FA04F320
:1003A00045EA030130BDC4F10C04C4F1200220FA77
:1003B00002F001FA04F340EA0300294630BD21FAB5
:1003C00004F0294630BD94F0000F83F4801306BF7B
:1003D00081F480110134013D4EE77FEA645C18BF6F
:1003E0007FEA655C29D094EA050F08BF90EA020F06
:1003F00005D054EA000C04BF1946104630BD91EAFE
:10040000030F1EBF0021002030BD5FEA545C05D100
:100410004000494128BF41F0004130BD14F580043F
:100420003CBF01F5801130BD01F0004545F0FE41B3
:1004300041F470014FF0000030BD7FEA645C1ABFE8
:10044000194610467FEA655C1CBF0B46024650EA1F
:10045000013406BF52EA033591EA030F41F400214B
:1004600030BD00BF90F0000F04BF0021704730B5D1
:100470004FF4806404F132044FF000054FF00001A6
:1004800050E700BF90F0000F04BF0021704730B567
:100490004FF4806404F1320410F0004548BF40423C
:1004A0004FF000013EE700BF42004FEAE2014FEA91
:1004B00031014FEA02701FBF12F07F4393F07F4F6C
:1004C00081F06051704732F07F4208BF704793F06F
:1004D0007F4F04BF41F40021704730B54FF4607482
:1004E00001F0004521F000411CE700BF50EA010285
:1004F00008BF704730B54FF000050AE050EA01022E
:1005000008BF704730B511F0004502D5404261EB9D
:1005100041014FF4806404F132045FEA915C3FF4DE
:10052000D8AE4FF003025FEADC0C18BF03325FEA7B
:10053000DC0C18BF033202EBDC02C2F1200300FA2C
:1005400003FC20FA02F001FA03FE40EA0E0021FA51
:1005500002F11444BDE600BF70B54FF0FF0C4CF43F
:10056000E06C1CEA11541DBF1CEA135594EA0C0FF1
:1005700095EA0C0F00F0DEF82C4481EA030621EA2C
:100580004C5123EA4C5350EA013518BF52EA033567
:1005900041F4801143F4801338D0A0FB02CE4FF019
:1005A0000005E1FB02E506F00042E0FB03E54FF049
:1005B0000006E1FB03569CF0000F18BF4EF0010E41
:1005C000A4F1FF04B6F5007F64F5407404D25FEA3D
:1005D0004E0E6D4146EB060642EAC62141EA5551F0
:1005E0004FEAC52040EA5E504FEACE2EB4F1FD0C32
:1005F00088BFBCF5E06F1ED8BEF1004F08BF5FEAB0
:10060000500E50F1000041EB045170BD06F0004661
:1006100046EA010140EA020081EA0301B4EB5C040E
:10062000C2BFD4EB0C0541EA045170BD41F4801106
:100630004FF0000E013C00F3AB8014F1360FDEBF2B
:10064000002001F0004170BDC4F10004203C35DA07
:100650000C341BDC04F11404C4F1200500FA05F38A
:1006600020FA04F001FA05F240EA020001F000422B
:1006700021F0004110EBD37021FA04F642EB0601A1
:100680005EEA430E08BF20EAD37070BDC4F10C04CB
:10069000C4F1200500FA04F320FA05F001FA04F28F
:1006A00040EA020001F0004110EBD37041F100017B
:1006B0005EEA430E08BF20EAD37070BDC4F1200586
:1006C00000FA05F24EEA020E20FA04F301FA05F2EE
:1006D00043EA020321FA04F001F0004121FA04F296
:1006E00020EA020000EBD3705EEA430E08BF20EA66
:1006F000D37070BD94F0000F0FD101F000464000A0
:1007000041EB010111F4801F08BF013CF7D041EA21
:10071000060195F0000F18BF704703F00046520025
:1007200043EB030313F4801F08BF013DF7D043EAF6
:100730000603704794EA0C0F0CEA135518BF95EAAC
:100740000C0F0CD050EA410618BF52EA4306D1D133
:1007500081EA030101F000414FF0000070BD50EA52
:10076000410606BF1046194652EA430619D094EADC
:100770000C0F02D150EA013613D195EA0C0F05D1C6
:1007800052EA03361CBF104619460AD181EA03011A
:1007900001F0004141F0FE4141F470014FF00000D2
:1007A00070BD41F0FE4141F4780170BD70B54FF06D
:1007B000FF0C4CF4E06C1CEA11541DBF1CEA1355ED
:1007C00094EA0C0F95EA0C0F00F0A7F8A4EB0504CF
:1007D00081EA030E52EA03354FEA013100F08880C6
:1007E0004FEA03334FF0805545EA131343EA12638F
:1007F0004FEA022245EA111545EA10654FEA002644
:100800000EF000419D4208BF964244F1FD0404F5FC
:10081000407402D25B084FEA3202B61A65EB030558
:100820005B084FEA32024FF480104FF4002CB6EB15
:10083000020E75EB030E22BFB61A754640EA0C0095
:100840005B084FEA3202B6EB020E75EB030E22BFD5
:10085000B61A754640EA5C005B084FEA3202B6EB16
:10086000020E75EB030E22BFB61A754640EA9C00D5
:100870005B084FEA3202B6EB020E75EB030E22BFA5
:10088000B61A754640EADC0055EA060E18D04FEA63
:10089000051545EA16754FEA06164FEAC30343EA03
:1008A00052734FEAC2025FEA1C1CC0D111F4801FD0
:1008B0000BD141EA00014FF000004FF0004CB6E7C9
:1008C00011F4801F04BF01430020B4F1FD0C88BF68
:1008D000BCF5E06F3FF6AFAEB5EB030C04BFB6EB73
:1008E000020C5FEA500C50F1000041EB045170BD66
:1008F0000EF0004E4EEA113114EB5C04C2BFD4EB93
:100900000C0541EA045170BD41F480114FF0000E16
:10091000013C90E645EA060E8DE60CEA135594EA92
:100920000C0F08BF95EA0C0F3FF43BAF94EA0C0F95
:100930000AD150EA01347FF434AF95EA0C0F7FF40A
:1009400025AF104619462CE795EA0C0F06D152EA5E
:1009500003353FF4FDAE1046194622E750EA410642
:1009600018BF52EA43067FF4C5AE50EA41047FF453
:100970000DAF52EA43057FF4EBAE12E74FF0FF3CB8
:1009800006E000BF4FF0010C02E000BF4FF0010C89
:100990004DF804CD4FEA410C7FEA6C5C4FEA430C02
:1009A00018BF7FEA6C5C1BD001B050EA410C0CBF51
:1009B00052EA430C91EA030F02BF90EA020F0020B3
:1009C000704710F1000F91EA030F58BF994208BF1A
:1009D00090422CBFD8176FEAE37040F001007047D7
:1009E0004FEA410C7FEA6C5C02D150EA013C07D12E
:1009F0004FEA430C7FEA6C5CD6D152EA033CD3D079
:100A00005DF8040B704700BF8446104662468C4672
:100A10001946634600E000BF01B5FFF7B7FF0028A5
:100A200048BF10F1000F01BD4DF808EDFFF7F4FFCE
:100A30000CBF012000205DF808FB00BF4DF808ED59
:100A4000FFF7EAFF34BF012000205DF808FB00BF7C
:100A50004DF808EDFFF7E0FF94BF012000205DF89E
:100A600008FB00BF4DF808EDFFF7CEFF94BF012053
:100A700000205DF808FB00BF4DF808EDFFF7C4FF4C
:100A800034BF012000205DF808FB00BF4FEA410C95
:100A90007FEA6C5C02D150EA013C0AD14FEA430C78
:100AA0007FEA6C5C02D152EA033C02D14FF00000B5
:100AB00070474FF0010070474FEA4102B2F1E04346
:100AC00024BFB3F5001CDCF1FE5C0DD901F0004C35
:100AD0004FEAC0024CEA5070B2F1004F40EB830085
:100AE00008BF20F00100704711F0804F21D113F1B1
:100AF0003872BCBF01F00040704741F480114FEAEA
:100B00005252C2F11802C2F1200C10FA0CF320FA72
:100B100002F018BF40F001004FEAC1234FEAD3238F
:100B200003FA0CFC40EA0C0023FA02F34FEA4303F9
:100B3000CCE77FEA625307D150EA01331EBF4FF082
:100B4000FE4040F44000704701F0004040F0FE409D
:100B500040F40000704700BF80B485B000AFF8607B
:100B6000B9607A60FB68074A1A60BB68064A1A6077
:100B70007B6880221A6000BF1437BD465DF8047B95
:100B8000704700BF0C010020AC010020B0B59CB044
:100B900000AF00F0F3FD00F071F800F075F900F01F
:100BA0003DF900F0CBF806F0D9FF06F049F906F060
:100BB000EFFA06F09FFB06F0AFF8284B07F154045C
:100BC0001D460FCD0FC495E8070084E8070007F124
:100BD00054030021184604F03CFE0346204A1360EB
:100BE000204B07F138041D460FCD0FC495E80700D0
:100BF00084E8070007F138030021184604F029FEB5
:100C00000346194A1360194B07F11C041D460FCD0A
:100C10000FC495E8070084E8070007F11C030021D2
:100C2000184604F016FE0346114A1360114B3C4669
:100C30001D460FCD0FC495E8070084E807003B462A
:100C40000021184604F005FE03460B4A136004F029
:100C5000F9FD002318467037BD46B0BD1096000858
:100C600044040020389600084804002060960008DC
:100C70004C040020889600085004002080B5A6B0DF
:100C800000AF07F1700328220021184608F0DAF9B6
:100C900007F15C0300221A605A609A60DA601A61F8
:100CA0003B1D58220021184608F0CCF902233B676F
:100CB0000123FB671023C7F880300223C7F8883070
:100CC0004FF40043C7F88C304FF4E013C7F890306E
:100CD0000023C7F8943007F17003184602F034FE81
:100CE0000346002B01D000F08DFB0F23FB65022390
:100CF0003B6600237B664FF48063BB660023FB6684
:100D000007F15C030221184603F072FE0346002B34
:100D100001D000F077FB80237B604FF48073FB628F
:100D20003B1D184604F094F80346002B01D000F058
:100D300069FB00BF9837BD4680BD000080B58AB012
:100D400000AF07F11C0300221A605A609A603B1D35
:100D500000221A605A609A60DA601A615A612E4B5A
:100D60004FF0A0421A602C4B00225A602A4B0022FE
:100D70009A60294B00221A61274B00225A76264B93
:100D8000002283F82020244B0022DA62224B012229
:100D90009A62214B0022DA601F4B0122DA611E4B5E
:100DA000002283F830201C4B04225A611A4B002287
:100DB0001A76194B00225A63174800F015FD0346B6
:100DC000002B01D000F01EFB0023FB6107F11C0388
:100DD0001946114801F048FC0346002B01D000F0F1
:100DE00011FB01237B600123BB6000233B610023D7
:100DF000FB6000237B610023BB613B1D1946064855
:100E000001F048F90346002B01D000F0FBFA00BFC7
:100E10002837BD4680BD00BFCC03002080B500AFA1
:100E2000174B184A1A60164B09225A60144B0022BD
:100E30009A60134B0022DA60114B4FF440321A6172
:100E40000F4B4FF400125A610D4B00221A760C4BD7
:100E500000225A760A4B00229A76094B0022DA7653
:100E6000074B00221A77064B00225A77044801F0FC
:100E70006DFE0346002B01D000F0C4FA00BF80BD18
:100E80001C0400200064004080B58EB000AF07F164
:100E9000240300221A605A609A60DA601A61B84B23
:100EA0005B69B74A43F400135361B54B5B6903F4C4
:100EB00000133B623B6AB24B5B69B14A43F40023C7
:100EC0005361AF4B5B6903F40023FB61FB69AC4BDF
:100ED0005B69AB4A43F480335361A94B5B6903F40C
:100EE0008033BB61BB69A64B5B69A54A43F48003B1
:100EF0005361A34B5B6903F480037B617B69A04B67
:100F00005B699F4A43F4003353619D4B5B6903F473
:100F100000333B613B699A4B5B69994A43F48023F8
:100F20005361974B5B6903F48023FB60FB68944B30
:100F30005B69934A43F400035361914B5B6903F48B
:100F40000003BB60BB688E4B5B698D4A43F4801322
:100F500053618B4B5B6903F480137B607B680122D8
:100F60004FF6FF71874802F099FC01224FF4E071BF
:100F7000854802F093FC002244F28101834802F08C
:100F80008DFC01224CF23E31814802F087FC0122A7
:100F90004CF2EC017F4802F081FC002240217C48A9
:100FA00002F07CFC01224FF4FC517B4802F076FCFD
:100FB00001224FF430614FF0904002F06FFC0122AB
:100FC0000421764802F06AFC012270216F4802F089
:100FD00065FC4FF6FE737B621123BB620023FB624C
:100FE00000233B6307F124031946664802F0B4FA74
:100FF0004FF400537B624FF48813BB620023FB6203
:1010000007F124031946644802F0A6FA03237B6221
:101010000023BB620023FB6207F1240319465F48EB
:1010200002F09AFA4EF628637B620023BB6200232B
:10103000FB6207F124031946534802F08DFA4FF47E
:10104000E0737B621123BB620023FB6200233B63DE
:1010500007F1240319464C4802F07EFA49F2F043A6
:101060007B620023BB620023FB6207F12403194665
:101070004FF0904002F070FA70237B620023BB6255
:101080000023FB6207F124031946434802F064FA87
:1010900044F281037B620123BB620023FB620023D5
:1010A0003B6307F124031946384802F055FA4BF622
:1010B00006737B620023BB620023FB6207F12403FB
:1010C0001946324802F048FA4FF480537B620023FD
:1010D000BB620223FB6207F1240319462A4802F08F
:1010E0003BFA43F681437B620023BB620023FB6231
:1010F00007F124031946264802F02EFA4CF23E333B
:101100007B621123BB620023FB6200233B6307F178
:10111000240319461E4802F01FFA4FF440737B6205
:101120000223BB620023FB6203233B6307237B6331
:1011300007F124031946174802F00EFA43F610434C
:101140007B620023BB620023FB6207F12403194684
:10115000104802F001FA4CF2EC037B621123BB62EF
:101160000023FB6200233B6307F12403194609486F
:1011700002F0F2F940237B620123BB6210E000BF62
:10118000001002400010004800140048000400480D
:1011900000180048000C004800080048001C0048E7
:1011A0000023FB6200233B6307F1240319462C480C
:1011B00002F0D2F94FF4FC537B621123BB6200238F
:1011C000FB6200233B6307F124031946254802F024
:1011D000C3F94FF430637B621123BB620023FB62CF
:1011E00000233B6307F1240319464FF0904002F0BF
:1011F000B3F904237B621123BB620023FB6200234B
:101200003B6307F124031946174802F0A5F9702340
:101210007B621123BB620023FB6200233B6307F167
:1012200024031946114802F097F901237B62012338
:10123000BB620023FB6203233B6307F124031946CF
:101240000B4802F089F900220521282002F05AF902
:10125000282002F073F900BF3837BD4680BD00BFBB
:101260000018004800080048001C0048000400481E
:101270000010004880B582B000AF786007F08CFAAB
:1012800006F088FD06F0B8FF0A4B1B68052B08D155
:10129000084B00221A604FF48041074802F016FB09
:1012A00004E0044B1B680133024A13605E2004F023
:1012B0001CFBE3E7540400200004004880B582B022
:1012C00000AF786005F0BCFD05F0DCFE0A4B1B6842
:1012D000052B07D1084B00221A600121074802F0B4
:1012E000F5FA04E0044B1B680133034A13600A203B
:1012F00004F0FBFAE6E700BF5804002000040048B1
:1013000080B582B000AF786007F082FE80210A4885
:1013100002F0DCFA094B1B68FF2B03D1074B0022BC
:101320001A6004E0054B1B680133044A1360012076
:1013300004F0DBFAE8E700BF000400485C0400208A
:1013400080B584B000AF78604FF400611E4802F0B1
:101350008DFA0346FB731D4B1B68002B07D1FB7BEB
:10136000012B04D11A4B1B680133194A1360FB7B14
:10137000164A13604FF48061134802F077FA03466F
:10138000BB73144B1B68002B07D1BB7B012B04D113
:10139000114B1B680133104A1360BB7B0D4A13606D
:1013A00007F024FA0D4B1B68FF2B03D10B4B0022D7
:1013B0001A6004E0094B1B680133084A13600120DE
:1013C00004F093FAC0E700BF00180048C4030020EF
:1013D00040140020C80300204414002060040020B2
:1013E00080B582B000AF78607B681B68044A934286
:1013F00001D100F0D9F900BF0837BD4680BD00BF5C
:10140000002C014080B400AF72B600BF00BFFDE702
:1014100080B582B000AF114B9B69104A43F00103C5
:1014200093610E4B9B6903F001037B607B680B4B60
:10143000DB690A4A43F08053D361084BDB6903F050
:1014400080533B603B6800220F216FF0010002F0E7
:1014500059F800BF0837BD4680BD00BF00100240EC
:1014600080B58CB000AF786007F11C0300221A60D1
:101470005A609A60DA601A617B681B68B3F1A04F0A
:1014800054D12C4B5B692B4A43F080535361294B59
:101490005B6903F08053BB61BB69264B5B69254ADE
:1014A00043F480035361234B5B6903F480037B6146
:1014B0007B69204B5B691F4A43F4002353611D4B3A
:1014C0005B6903F400233B613B691A4B5B69194A72
:1014D00043F400335361174B5B6903F40033FB6043
:1014E000FB681423FB6103233B6200237B6207F14B
:1014F0001C031946104802F02FF80F23FB61032349
:101500003B6200237B6207F11C0319460B4802F083
:1015100023F80F23FB6103233B6200237B6207F167
:101520001C0319464FF0904002F016F800BF303708
:10153000BD4680BD0010024000140048000800486D
:1015400080B58AB000AF786007F1140300221A60FA
:101550005A609A60DA601A617B681B68174A934286
:1015600027D1174BDB69164A43F00073D361144B44
:10157000DB6903F000733B613B69114B5B69104A07
:1015800043F4801353610E4B5B6903F48013FB60DB
:10159000FB6803237B610223BB610023FB61032300
:1015A0003B6207237B6207F114031946054801F0EB
:1015B000D3FF00BF2837BD4680BD00BF0064004098
:1015C00000100240000C004880B58CB000AF78607D
:1015D0000023BB6200237B622E4B9B692D4A43F4A0
:1015E000006393612B4B9B6903F40063BB60BB6892
:1015F00007F10C0207F110031146184603F0F6FB41
:1016000003F0D2FBB862BB6A234AA2FB03239B0C04
:10161000013B7B62214B224A1A60204B40F2E732A9
:10162000DA601E4A7B6A53601C4B00221A611B4B16
:1016300000229A60194B00229A61184803F026FE96
:10164000034687F82F3097F82F30002B1BD1134813
:1016500003F07EFE034687F82F3097F82F30002BDB
:1016600011D1192001F06AFF7B680F2B08D80022E6
:101670007968192001F046FF0A4A7B68136002E08E
:10168000012387F82F3097F82F3018463037BD46A2
:1016900080BD00BF0010024083DE1B4364040020B5
:1016A000002C01400400002080B400AF00BFFDE723
:1016B00080B400AF00BFFDE780B400AF00BFFDE71E
:1016C00080B400AF00BFFDE780B400AF00BFFDE70E
:1016D00080B400AF00BFBD465DF8047B70470000DA
:1016E00080B500AF024803F0A3FE00BF80BD00BF7D
:1016F0006404002080B500AF4FF4005002F000F900
:1017000000BF80BD80B400AF064BD3F88830054AD7
:1017100043F47003C2F8883000BFBD465DF8047B17
:10172000704700BF00ED00E0DFF834D0FFF7EAFFBC
:101730000C480D490D4A002302E0D458C45004332C
:10174000C4188C42F9D30A4A0A4C002301E0136002
:101750000432A242FBD307F0D9FCFFF717FAFEE7E9
:101760000000012000000020EC0000204CA4000834
:10177000F0000020EC150020FEE7000080B500AF6F
:10178000084B1B68074A43F010031360032001F065
:10179000AEFE0F20FFF718FFFFF73AFE00231846B2
:1017A00080BD00BF0020024080B400AF064B1B7814
:1017B0001A46064B1B681344044A136000BFBD461B
:1017C0005DF8047B704700BF08000020B0040020D3
:1017D00080B400AF034B1B681846BD465DF8047B20
:1017E000704700BFB004002080B59AB000AF7860A9
:1017F000002387F8673000233B660023BB607B68CB
:10180000002B01D10123E3E17B681B69002B7B687E
:101810001B6C03F01003002B76D17B681B6C002B34
:1018200052D17B6800225A647B680022DA647B68AC
:1018300000229A647B68002283F83C207868FFF7D6
:101840000FFE7B681B689B6803F08053002B3BD125
:10185000786801F05FF8034687F867307B681B6C97
:1018600003F01003002B2FD197F86730002B2BD1FA
:101870007B681B6C23F4885323F0020343F00202BD
:101880007B681A647B681B689A687B681B6822F017
:1018900040529A607B681B689A687B681B6842F0BC
:1018A00080529A60924B1B68924AA2FB03239A0CC7
:1018B00013469B0013445B00BB6002E0BB68013B26
:1018C000BB60BB68002BF9D17B681B689B6803F089
:1018D0008053002B07D07B681B689B6803F0005384
:1018E000B3F1005F10D17B681B6C23F0120343F04F
:1018F00010027B681A647B685B6C43F001027B68B2
:101900005A64012387F867307B681B6C03F010036F
:10191000002B40F0508197F86730002B40F04B814E
:101920007B681B689B6803F00403002B40F0438135
:101930007B681B6C23F4817343F002027B681A649A
:101940007B681B68B3F1A04F04D07B681B686A4AB0
:10195000934201D1694B00E0694BFB657B681B68D2
:10196000B3F1A04F02D1644BFB601AE07B681B68A7
:10197000614A934203D14FF0A043FB6011E07B68C2
:101980001B68604A934202D15F4BFB6009E07B68B1
:101990001B685D4A934202D15A4BFB6001E0002371
:1019A000FB607B681B689B6803F00303012B08D175
:1019B0007B681B681B6803F00103012B01D1012325
:1019C00000E00023002B1CD1FB68002B10D0FB682B
:1019D0009B6803F00303012B07D1FB681B6803F02E
:1019E0000103012B01D1012300E00023002B08D1CA
:1019F000FB6D9B6823F440327B685B681A43FB6D88
:101A00009A607B685B7E5B037A68526B012A02D026
:101A10004FF4805200E000221A437B68DB681A43CF
:101A20007B689B6813433A6E13433B667B6893F86D
:101A30002030012B1BD17B685B7E002B09D17B689A
:101A40005B6A013B5A043B6E134343F480333B66AD
:101A50000DE07B681B6C23F0220343F020027B68BF
:101A60001A647B685B6C43F001027B685A647B6894
:101A70009B6A012B54D07B681B68224A934204D096
:101A80007B681B68204A934240D17B689B6AB3F510
:101A9000307F2AD07B689B6AB3F5807F22D07B6839
:101AA0009B6AB3F5E07F1AD07B689B6AB3F58A5FC7
:101AB00012D07B689B6AB3F5845F0AD07B689B6A0F
:101AC000B3F5865F02D07B689B6A23E04FF4C07356
:101AD00020E04FF4A0731DE04FF470731AE04FF450
:101AE000807317E04FF4307314E04FF4E07311E0AB
:101AF0000000002083DE1B43000100500003005063
:101B00000007005000040050000500507B689B6AED
:101B100023F480537A68D26A13433A6E13433B66C8
:101B20007B681B689B6803F00C03002B14D17B6857
:101B30001B68DB687A68126823F4804323F0020391
:101B4000D3607B681B7E9A037B6893F830305B0020
:101B500013433A6E13433B667B681B68DA681E4B7F
:101B600013407A681268396E0B43D3607B681B6937
:101B7000012B0CD17B681B681B6B23F00F017B686A
:101B8000DB695A1E7B681B680A431A6307E07B689F
:101B90001B681A6B7B681B6822F00F021A637B6854
:101BA00000225A647B681B6C23F0030343F001029C
:101BB0007B681A640AE07B681B6C23F0120343F015
:101BC00010027B681A64012387F8673097F8673042
:101BD00018466837BD4680BD07C0F0FF80B584B0A9
:101BE00000AF78600023FB737B681B689B6803F081
:101BF0000403002B40F0F9807B6893F83C30012B04
:101C000001D10223F4E07B68012283F83C2078684C
:101C100000F01CFE0346FB73FB7B002B40F0E080D2
:101C20007B681B6C23F4706323F0010343F4807220
:101C30007B681A647B681B68B3F1A04F04D07B6893
:101C40001B686D4A934206D16C4B9B6803F01F03DF
:101C5000002B10D005E06A4B9B6803F01F03002B9C
:101C600009D07B681B68B3F1A04F04D07B681B6868
:101C7000644A934215D17B681B6C23F480127B6805
:101C80001A647B681B68DB6803F00073002B36D096
:101C90007B681B6C23F4405343F480527B681A64C6
:101CA0002DE07B681B6C43F480127B681A647B68B0
:101CB0001B68B3F1A04F04D07B681B684E4A934267
:101CC0000AD14FF0A043DB6803F00073002B14BF70
:101CD00001230023DBB208E04A4BDB6803F000730A
:101CE000002B14BF01230023DBB2002B07D07B683D
:101CF0001B6C23F4405343F480527B681A647B6866
:101D00001B6C03F48053B3F5805F06D17B685B6C7A
:101D100023F006027B685A6402E07B6800225A6462
:101D20007B68002283F83C207B681B681C221A60B9
:101D30007B681B68B3F1A04F04D07B681B682E4AF8
:101D4000934206D12D4B9B6803F01F03002B3ED01E
:101D500005E02B4B9B6803F01F03002B37D07B68FB
:101D60001B68B3F1A04F04D07B681B68224A9342E2
:101D700006D1224B9B6803F01F03052B27D005E0FB
:101D80001F4B9B6803F01F03052B20D07B681B684B
:101D9000B3F1A04F04D07B681B68174A934206D169
:101DA000164B9B6803F01F03092B10D005E0144B62
:101DB0009B6803F01F03092B09D07B681B68B3F1F4
:101DC000A04F04D07B681B680E4A93420FD17B68FA
:101DD0001B689A687B681B6842F004029A6006E000
:101DE0007B68002283F83C2001E00223FB73FB7B2D
:101DF00018461037BD4680BD00010050000300505A
:101E0000000700500004005080B584B000AF786037
:101E10000023FB737B6893F83C30012B01D1022334
:101E200023E07B68012283F83C206C21786800F075
:101E3000D7FD0346FB73FB7B002B11D1786800F0C4
:101E400069FD0346FB73FB7B002B09D17B681B6C90
:101E500023F4885323F0010343F001027B681A64E2
:101E60007B68002283F83C20FB7B18461037BD4678
:101E700080BD000080B586B000AF78603960002377
:101E80003B617B685B69082B02D108237B613AE0E8
:101E90007B681B68B3F1A04F04D07B681B68724A53
:101EA000934201D1714B00E0714BFB60FB689B6872
:101EB00003F01F03002B12D17B681B68DB6803F063
:101EC0000103012B1DD17B681B6C43F020027B6852
:101ED0001A647B68002283F83C200123BFE0FB6882
:101EE0009B6803F44043002B0BD07B681B6C43F0D2
:101EF00020027B681A647B68002283F83C2001235F
:101F0000ADE00C237B617B681B68B3F1A04F04D06C
:101F10007B681B68544A934206D1544B9B6803F07C
:101F20001F03002B10D005E0514B9B6803F01F03EB
:101F3000002B09D07B681B68B3F1A04F04D07B68ED
:101F40001B684C4A934204D17B681B68DB683B6189
:101F50000FE07B681B68B3F1A04F04D07B681B685F
:101F6000414A934202D14FF0A04300E0414BDB686D
:101F70003B61FFF72DFCB86021E03B68B3F1FF3F08
:101F80001DD03B68002B07D0FFF722FC0246BB6840
:101F9000D31A3A689A4212D27B681B681A687B6926
:101FA0001340002B0BD17B681B6C43F004027B6851
:101FB0001A647B68002283F83C2003234FE07B688F
:101FC0001B681A687B691340002BD6D07B681B6C9A
:101FD00043F400727B681A647B681B68DB6803F457
:101FE0004063002B31D13B6903F40053002B2CD10B
:101FF0007B681B681B6803F00803082B25D17B68EE
:102000001B689B6803F00403002B12D17B681B6CD8
:1020100023F480727B681A647B681B6C03F4805322
:10202000002B12D17B681B6C43F001027B681A64A1
:102030000BE07B681B6C43F020027B681A647B68B2
:102040005B6C43F001027B685A643B6903F4804394
:10205000002B03D17B681B687A691A60002318463D
:102060001837BD4680BD00BF00010050000300507E
:10207000000700500004005080B483B000AF7860C7
:102080007B681B681B6C18460C37BD465DF8047BEB
:102090007047000080B49BB000AF786039600023C7
:1020A00087F867300023BB607B6893F83C30012BD6
:1020B00001D10223C8E27B68012283F83C207B68BF
:1020C0001B689B6803F00403002B40F0AC823B6864
:1020D0005B68042B1CD87B681B68196B3B685A68CB
:1020E00013465B0013445B001A461F239340DB43F7
:1020F00019403B6818683B685A6813465B001344F4
:102100005B0000FA03F27B681B680A431A6363E012
:102110003B685B68092B1ED87B681B68596B3B6862
:102120005A6813465B0013445B001E3B1F2202FAF1
:1021300003F3DB4319403B6818683B685A68134651
:102140005B0013445B001E3B00FA03F27B681B68D4
:102150000A435A6340E03B685B680E2B1ED87B68DD
:102160001B68996B3B685A6813465B0013445B001D
:102170003C3B1F2202FA03F3DB4319403B6818681B
:102180003B685A6813465B0013445B003C3B00FA13
:1021900003F27B681B680A439A631DE07B681B6837
:1021A000D96B3B685A6813465B0013445B005A3B8B
:1021B0001F2202FA03F3DB4319403B6818683B68AF
:1021C0005A6813465B0013445B005A3B00FA03F263
:1021D0007B681B680A43DA637B681B689B6803F0B3
:1021E0000C03002B40F0E5803B681B68092B1CD9D1
:1021F0007B681B6899693B681A6813465B00134447
:102200001E3B072202FA03F3DB4319403B68986840
:102210003B681A6813465B0013441E3B00FA03F246
:102220007B681B680A439A6119E07B681B685969DF
:102230003B681A6813465B001344072202FA03F353
:10224000DB4319403B6898683B681A6813465B009B
:10225000134400FA03F27B681B680A435A613B6827
:102260005A697B681B68DB68DB0803F003035B00CB
:1022700002FA03F33B663B681B69013B032B4FD813
:1022800001A252F823F000BF99220008BB220008E7
:10229000DD220008FF2200087B681B681A6E994B3C
:1022A00013403A68126891063A6E0A431A437B68F3
:1022B0001B6842F000421A667BE07B681B685A6E1E
:1022C000904B13403A68126891063A6E0A431A43DB
:1022D0007B681B6842F000425A666AE07B681B68B4
:1022E0009A6E884B13403A68126891063A6E0A4318
:1022F0001A437B681B6842F000429A6659E07B688B
:102300001B68DA6E7F4B13403A68126891063A6E8A
:102310000A431A437B681B6842F00042DA6648E0D1
:102320007B681B681B6E03F0F8423B681B689B06CA
:102330009A4207D17B681B681A6E7B681B6822F083
:1023400000421A667B681B685B6E03F0F8423B68CC
:102350001B689B069A4207D17B681B685A6E7B6894
:102360001B6822F000425A667B681B689B6E03F074
:10237000F8423B681B689B069A4207D17B681B6842
:102380009A6E7B681B6822F000429A667B681B6825
:10239000DB6E03F0F8423B681B689B069A4207D14C
:1023A0007B681B68DA6E7B681B6822F00042DA6685
:1023B00000BF7B681B689B6803F00303012B08D1F7
:1023C0007B681B681B6803F00103012B01D101230B
:1023D00000E00023002B40F031813B68DB68012BDB
:1023E0000FD07B681B68D3F8B0103B681B680122D4
:1023F00002FA03F3DA437B681B680A40C3F8B02093
:1024000049E07B681B68D3F8B0103B681B68012269
:102410009A407B681B680A43C3F8B0203B681B687E
:10242000092B1CD97B681B6899693B681A6813469D
:102430005B0013441B3B072202FA03F3DB43194002
:102440003B6898683B681A6813465B0013441B3B63
:1024500000FA03F27B681B680A439A611BE07B6801
:102460001B6859693B681B685A1C13465B00134480
:10247000072202FA03F3DB4319403B6898683B6884
:102480001B685A1C13465B00134400FA03F27B6876
:102490001B680A435A617B681B68B3F1A04F04D0E4
:1024A0007B681B68184A934201D1184B00E0184B17
:1024B000FB653B681B68102B05D1FB6D9B6803F423
:1024C0000003002B15D03B681B68112B05D1FB6D59
:1024D0009B6803F08073002B0BD03B681B68122BAA
:1024E00040F0AC80FB6D9B6803F48003002B40F050
:1024F000A5807B681B68B3F1A04F0BD1024BFB603A
:1025000023E000BF00F0FF830001005000030050F3
:10251000000700507B681B684E4A934203D14FF07E
:10252000A043FB6011E07B681B684B4A934202D1D9
:102530004A4BFB6009E07B681B68484A934202D122
:10254000454BFB6001E00023FB607B681B689B68D8
:1025500003F00303012B08D17B681B681B6803F0A1
:102560000103012B01D1012300E00023002B50D1F6
:10257000FB68002B10D0FB689B6803F00303012B62
:1025800007D1FB681B6803F00103012B01D1012374
:1025900000E00023002B3CD13B681B68102B1DD1B1
:1025A0007B681B68B3F1A04F18D1FB6D9B6843F4A7
:1025B0000002FB6D9A602A4B1B682A4AA2FB032388
:1025C0009A0C13469B0013445B00BB6002E0BB689F
:1025D000013BBB60BB68002BF9D12EE03B681B6858
:1025E000112B0BD17B681B68B3F1A04F06D1FB6D9B
:1025F0009B6843F08072FB6D9A601EE03B681B682D
:10260000122B1AD1FB6D9B6843F48002FB6D9A601C
:1026100013E07B681B6C43F020027B681A64012383
:1026200087F867300AE07B681B6C43F020027B6808
:102630001A64012387F8673000E000BF7B6800223E
:1026400083F83C2097F8673018466C37BD465DF834
:10265000047B70470001005000040050000500504A
:102660000000002083DE1B4380B499B000AF786087
:102670003960002387F85F307B681B68B3F1A04F97
:1026800002D16D4BBB601AE07B681B686A4A9342BB
:1026900003D14FF0A043BB6011E07B681B68674A21
:1026A000934202D1664BBB6009E07B681B68644AB9
:1026B000934202D1614BBB6001E00023BB60BB6869
:1026C000002B01D10123B0E07B6893F83C30012B53
:1026D00001D10223A9E07B68012283F83C207B68BA
:1026E0001B689B6803F00403002B40F08D80BB68DF
:1026F0009B6803F00403002B40F086807B681B6816
:10270000B3F1A04F04D07B681B684B4A934201D1C0
:102710004C4B00E04C4BBB653B681B68002B40D02A
:10272000BB6D9B6823F460423B6859687B6893F8F3
:1027300030305B030B431A43BB6D9A607B681B68A8
:102740009B6803F00303012B08D17B681B681B689F
:1027500003F00103012B01D1012300E00023002B32
:102760005CD1BB689B6803F00303012B07D1BB68F6
:102770001B6803F00103012B01D1012300E00023BA
:10278000002B4BD1BB6D9B6823F4716323F00F03C7
:102790003A6811683A6892680A431A43BB6D9A60B6
:1027A0003CE0BB6D9B6823F46042BB6D9A607B6824
:1027B0001B689B6803F00303012B08D17B681B682F
:1027C0001B6803F00103012B01D1012300E000236A
:1027D000002B23D1BB689B6803F00303012B07D1B7
:1027E000BB681B6803F00103012B01D1012300E04A
:1027F0000023002B12D1BB6D9B6823F4716323F07F
:102800000F03BA6D936009E07B681B6C43F02002F4
:102810007B681A64012387F85F3000E000BF7B68A3
:10282000002283F83C2097F85F3018466437BD4695
:102830005DF8047B704700BF0001005000040050A9
:1028400000050050000300500007005080B584B020
:1028500000AF78600023FB607B681B689B6803F017
:102860000303012B08D17B681B681B6803F001037D
:10287000012B01D1012300E00023002B43D17B6811
:102880001B689A68224B1340002B0DD07B681B6C91
:1028900043F010027B681A647B685B6C43F00102B2
:1028A0007B685A6401232FE07B681B689A687B6809
:1028B0001B6842F001029A60FEF78AFFF8601BE095
:1028C000FEF786FF0246FB68D31A022B14D97B68F9
:1028D0001B681B6803F00103012B0DD07B681B6C88
:1028E00043F010027B681A647B685B6C43F0010262
:1028F0007B685A64012307E07B681B681B6803F050
:102900000103012BDCD1002318461037BD4680BDE2
:102910003F00008080B584B000AF78600023FB608A
:102920007B681B689B6803F00303012B08D17B685D
:102930001B681B6803F00103012B01D1012300E098
:102940000023002B47D07B681B689B6803F00D03B6
:10295000012B0FD17B681B689A687B681B6842F06B
:1029600002029A607B681B6803221A60FEF730FF40
:10297000F86029E07B681B6C43F010027B681A64E6
:102980007B685B6C43F001027B685A64012323E09F
:10299000FEF71EFF0246FB68D31A022B14D97B6890
:1029A0001B689B6803F00103012B0DD17B681B6C36
:1029B00043F010027B681A647B685B6C43F0010291
:1029C0007B685A64012307E07B681B689B6803F0FF
:1029D0000103012BDCD0002318461037BD4680BD13
:1029E00080B586B000AF7860396000237B6100233A
:1029F000FB6000233B617B681B689B6803F00C0352
:102A0000002B00F09B807B681B68DB6803F0007381
:102A1000B3F1007F2AD17B685B7E012B26D17B68D6
:102A20001B7E012B22D10C233B6014E03B69464AFC
:102A300093420DD97B681B6C43F010027B681A64CB
:102A40007B685B6C43F001027B685A64012376E08B
:102A50003B6901333B617B681B681B6803F04003E3
:102A6000402BE3D17B681B6840221A603B68602BD7
:102A700015D07B681B689B6803F00403042B0ED100
:102A80007B681B689B6803F00203002B07D17B68FF
:102A90001B689A687B681B6842F010029A603B686A
:102AA0000C2B15D07B681B689B6803F00803082B70
:102AB0000ED17B681B689B6803F00203002B07D1D3
:102AC0007B681B689A687B681B6842F020029A60EA
:102AD0003B68602B05D03B686C2B05D10C237B61D8
:102AE00005E008237B6102E004237B6100BFFEF761
:102AF0006FFEF8601BE0FEF76BFE0246FB68D31A20
:102B00000B2B14D97B681B689A687B691340002BD8
:102B10000DD07B681B6C43F010027B681A647B68E5
:102B20005B6C43F001027B685A64012307E07B6819
:102B30001B689A687B691340002BDCD10023184680
:102B40001837BD4680BD00BFFF93090080B584B033
:102B500000AF78607B68002B01D10123EDE07B683A
:102B600093F82030DBB2002B02D17868FEF7E8FC46
:102B70007B681B681A687B681B6842F001021A6058
:102B8000FEF726FEF86012E0FEF722FE0246FB6822
:102B9000D31A0A2B0BD97B685B6A43F400327B683B
:102BA0005A627B68052283F820200123C5E07B68F8
:102BB0001B685B6803F00103002BE5D07B681B6892
:102BC0001A687B681B6822F002021A60FEF700FE9A
:102BD000F86012E0FEF7FCFD0246FB68D31A0A2BF0
:102BE0000BD97B685B6A43F400327B685A627B686E
:102BF000052283F8202001239FE07B681B685B6827
:102C000003F00203002BE5D17B681B7E012B08D16A
:102C10007B681B681A687B681B6842F080021A6038
:102C200007E07B681B681A687B681B6822F08002DB
:102C30001A607B685B7E012B08D17B681B681A6871
:102C40007B681B6842F040021A6007E07B681B68E3
:102C50001A687B681B6822F040021A607B689B7EC2
:102C6000012B08D17B681B681A687B681B6842F0DF
:102C700020021A6007E07B681B681A687B681B6883
:102C800022F020021A607B68DB7E012B08D17B6872
:102C90001B681A687B681B6822F010021A6007E044
:102CA0007B681B681A687B681B6842F010021A6018
:102CB0007B681B7F012B08D17B681B681A687B68C7
:102CC0001B6842F008021A6007E07B681B681A68FC
:102CD0007B681B6822F008021A607B685B7F012B0F
:102CE00008D17B681B681A687B681B6842F0040285
:102CF0001A6007E07B681B681A687B681B6822F013
:102D000004021A607B689A687B68DB681A437B68F8
:102D10001B691A437B685B6942EA03017B685B6855
:102D20005A1E7B681B680A43DA617B6800225A627C
:102D30007B68012283F82020002318461037BD4607
:102D400080BD80B487B000AF786039607B681B6855
:102D50007B617B6893F82030FB74FB7C012B03D0F4
:102D6000FB7C022B40F0AA807B69D3F8003243F051
:102D700001027B69C3F800223B685B6903F01F0313
:102D8000012202FA03F3FB607B69D3F81C22FB6883
:102D9000DB431A407B69C3F81C223B68DB69002BCC
:102DA00023D17B69D3F80C22FB68DB431A407B6993
:102DB000C3F80C223B68DB6819043B685B689BB274
:102DC0003A68526919437B69483243F832103B68CC
:102DD0009B6819043B681B689AB23B685B690A43AD
:102DE00079694833DB000B445A603B68DB69012B8F
:102DF00022D17B69D3F80C22FB681A437B69C3F8A4
:102E00000C223B681B6819043B685B689BB23A68FC
:102E1000526919437B69483243F832103B689B681A
:102E200019043B68DB689AB23B685B690A437969BD
:102E30004833DB000B445A603B689B69002B09D187
:102E40007B69D3F80422FB68DB431A407B69C3F833
:102E5000042207E07B69D3F80422FB681A437B69EC
:102E6000C3F804223B681B69002B09D17B69D3F8A6
:102E70001422FB68DB431A407B69C3F8142207E085
:102E80007B69D3F81422FB681A437B69C3F81422C8
:102E90003B681B6A012B07D17B69D3F81C22FB68B6
:102EA0001A437B69C3F81C227B69D3F8003223F0F4
:102EB00001027B69C3F80022002306E07B685B6A9D
:102EC00043F480227B685A62012318461C37BD46B2
:102ED0005DF8047B704780B584B000AF78607B6894
:102EE00093F82030DBB2012B2ED17B68022283F8CD
:102EF00020207B681B681A687B681B6822F001022F
:102F00001A60FEF765FCF86012E0FEF761FC02460D
:102F1000FB68D31A0A2B0BD97B685B6A43F4003237
:102F20007B685A627B68052283F82020012312E027
:102F30007B681B685B6803F00103002BE5D17B68AD
:102F400000225A62002306E07B685B6A43F4002299
:102F50007B685A62012318461037BD4680BD80B495
:102F600089B000AFF860B9607A603B60FB6893F8A5
:102F70002030FB77FB681B689B68BB61FB7F012BE4
:102F800003D0FB7F022B40F0AD80BB6903F0806370
:102F9000002B0AD1BB6903F00063002B05D1BB698C
:102FA00003F08053002B00F09580BB691B0E03F0EB
:102FB00003037B6101227B699A403B681A60BB680E
:102FC0009B68002B0DD1BB681B685A05BB68DB688A
:102FD000F96809681A437B6918331B010B441A60AE
:102FE0000FE0BB685B68DA00BB689B681A43BB688C
:102FF000DB68F96809681A437B6918331B010B44C5
:103000001A60FB681968BB681A697B6918331B0171
:103010000B4404331A60BB681B7D012B11D1FB6884
:103020001A687B6918331B01134404331B68FA6860
:10303000116843F480727B6918331B010B4404331D
:103040001A607B6807331B781A067B6806331B7887
:103050001B041A437B6805331B781B0213437A68F1
:10306000043212781046FA68116843EA00027B695C
:103070001B010B4403F5C6731A607B6803331B788E
:103080001A067B6802331B781B041A437B680133E2
:103090001B781B0213437A6812781046FA6811688D
:1030A00043EA00027B691B010B4403F5C4731A60F9
:1030B000FB681A687B6918331B0113441B68FA68A4
:1030C000116843F001027B6918331B010B441A603D
:1030D00000230EE0FB685B6A43F40012FB685A624F
:1030E000012306E0FB685B6A43F48022FB685A62B6
:1030F000012318462437BD465DF8047B704780B431
:1031000087B000AFF860B9607A603B60FB6893F805
:103110002030FB75FB7D012B03D0FB7D022B40F0A3
:103120000381BB68002B0ED1FB681B68DB6803F0D2
:103130000303002B16D1FB685B6A43F40012FB68A3
:103140005A620123F7E0FB681B681B6903F0030365
:10315000002B07D1FB685B6A43F40012FB685A62DC
:103160000123E8E0FB681A68BB681B331B011344AA
:103170001B6803F004027B689A607B689B68002BE5
:103180000CD1FB681A68BB681B331B0113441B6816
:103190005B0DC3F30A027B681A600BE0FB681A68D8
:1031A000BB681B331B0113441B68DB0823F0604220
:1031B0007B685A60FB681A68BB681B331B011344A9
:1031C0001B6803F002027B68DA60FB681A68BB6860
:1031D0001B331B01134404331B6803F00803002B4B
:1031E00003D07B6808221A610BE0FB681A68BB6891
:1031F0001B331B01134404331B6803F00F027B686D
:103200001A61FB681A68BB681B331B011344043343
:103210001B681B0ADAB27B689A61FB681A68BB6894
:103220001B331B01134404331B681B0C9AB27B68CD
:103230005A61FB681A68BB681B01134403F5DC7311
:103240001B68DAB23B681A70FB681A68BB681B011E
:10325000134403F5DC731B681A0A3B680133D2B2CE
:103260001A70FB681A68BB681B01134403F5DC7312
:103270001B681A0C3B680233D2B21A70FB681A68DA
:10328000BB681B01134403F5DC731B681A0E3B6813
:103290000333D2B21A70FB681A68BB681B0113446F
:1032A00003F5DE731A683B680433D2B21A70FB6808
:1032B0001A68BB681B01134403F5DE731B681A0A06
:1032C0003B680533D2B21A70FB681A68BB681B01F1
:1032D000134403F5DE731B681A0C3B680633D2B245
:1032E0001A70FB681A68BB681B01134403F5DE7390
:1032F0001B681A0E3B680733D2B21A70BB68002BEA
:1033000008D1FB681B68DA68FB681B6842F0200282
:10331000DA6007E0FB681B681A69FB681B6842F00B
:1033200020021A61002306E0FB685B6A43F48022F6
:10333000FB685A62012318461C37BD465DF8047BC2
:10334000704780B485B000AF786039600023FB60BF
:103350007B6893F82030FB72FB7A012B02D0FB7A5A
:10336000022B0FD13B68002B06D17B681B68DB6802
:1033700003F00303FB6005E07B681B681B6903F037
:103380000303FB60FB6818461437BD465DF8047BF9
:103390007047000080B485B000AF78607B6803F0B0
:1033A0000703FB600C4BDB68BB60BA684FF6FF039A
:1033B0001340BB60FB681A02BB68134343F0BF6352
:1033C00043F40033BB60044ABB68D36000BF1437CA
:1033D000BD465DF8047B704700ED00E080B400AFAF
:1033E000044BDB681B0A03F007031846BD465DF873
:1033F000047B704700ED00E080B483B000AF03466B
:10340000FB7197F90730002B0BDBFB7903F01F02F0
:10341000074997F907305B09012000FA02F241F8E9
:10342000232000BF0C37BD465DF8047B704700BF0A
:1034300000E100E080B483B000AF03463960FB7167
:1034400097F90730002B0ADB3B68DAB20C4997F991
:1034500007301201D2B20B4483F800230AE03B6824
:10346000DAB20849FB7903F00F03043B1201D2B230
:103470000B441A7600BF0C37BD465DF8047B7047DD
:1034800000E100E000ED00E080B489B000AFF8603A
:10349000B9607A60FB6803F00703FB61FB69C3F165
:1034A0000703042B28BF0423BB61FB690433062BED
:1034B00002D9FB69033B00E000237B614FF0FF3240
:1034C000BB6902FA03F3DA43BB681A407B699A408E
:1034D0004FF0FF317B6901FA03F3D9437B680B405E
:1034E000134318462437BD465DF8047B704780B50A
:1034F00082B000AF78607868FFF74CFF00BF0837F4
:10350000BD4680BD80B586B000AF0346B9607A6025
:10351000FB7300237B61FFF761FF78617A68B9680C
:103520007869FFF7B1FF024697F90F301146184648
:10353000FFF780FF00BF1837BD4680BD80B582B061
:1035400000AF0346FB7197F907301846FFF754FFA9
:1035500000BF0837BD4680BD80B487B000AF78603B
:10356000396000237B6160E13B681A6801217B6957
:1035700001FA03F31340FB60FB68002B00F052815B
:103580003B685B6803F00303012B05D03B685B6875
:1035900003F00303022B30D17B689B683B617B699E
:1035A0005B00032202FA03F3DB433A6913403B61F9
:1035B0003B68DA687B695B0002FA03F33A691343FC
:1035C0003B617B683A699A607B685B683B6101227A
:1035D0007B6902FA03F3DB433A6913403B613B68C2
:1035E0005B681B0903F001027B6902FA03F33A6985
:1035F00013433B617B683A695A603B685B6803F040
:103600000303032B17D07B68DB683B617B695B009E
:10361000032202FA03F3DB433A6913403B613B6840
:103620009A687B695B0002FA03F33A6913433B61D2
:103630007B683A69DA603B685B6803F00303022B3E
:1036400023D17B69DA087B68083253F822303B616A
:103650007B6903F007039B000F2202FA03F3DB43AD
:103660003A6913403B613B681A697B6903F00703C1
:103670009B0002FA03F33A6913433B617B69DA0862
:103680007B680832396943F822107B681B683B610C
:103690007B695B00032202FA03F3DB433A691340C0
:1036A0003B613B685B6803F003027B695B0002FAE5
:1036B00003F33A6913433B617B683A691A603B68DC
:1036C0005B6803F44033002B00F0AC805E4B9B69D9
:1036D0005D4A43F0010393615B4B9B6903F0010377
:1036E000BB60BB68594A7B699B08023352F82330A0
:1036F0003B617B6903F003039B000F2202FA03F393
:10370000DB433A6913403B617B68B3F1904F25D0AE
:103710007B684F4A93421FD07B684E4A934219D030
:103720007B684D4A934213D07B684C4A93420DD03C
:103730007B684B4A934207D07B684A4A934201D147
:1037400006230CE007230AE0052308E0042306E033
:10375000032304E0022302E0012300E000237A694E
:1037600002F00302920093403A6913433B613749E8
:103770007B699B0802333A6941F823203A4B9B68E6
:103780003B61FB68DB433A6913403B613B685B6824
:1037900003F48013002B03D03A69FB6813433B61A9
:1037A000314A3B699360304BDB683B61FB68DB432C
:1037B0003A6913403B613B685B6803F40013002BDC
:1037C00003D03A69FB6813433B61274A3B69D360E6
:1037D000254B5B683B61FB68DB433A6913403B6107
:1037E0003B685B6803F40033002B03D03A69FB6845
:1037F00013433B611C4A3B6953601B4B1B683B6195
:10380000FB68DB433A6913403B613B685B6803F448
:103810008033002B03D03A69FB6813433B61124AA3
:103820003B6913607B6901337B613B681A687B6984
:1038300022FA03F3002B7FF497AE00BF00BF1C37C2
:10384000BD465DF8047B7047001002400000014057
:103850000004004800080048000C00480010004820
:1038600000140048001800480004014080B485B0EE
:1038700000AF78600B467B807B681A697B881340B9
:10388000002B02D00123FB7301E00023FB73FB7BC1
:1038900018461437BD465DF8047B704780B483B08A
:1038A00000AF78600B467B8013467B707B78002BE3
:1038B00003D07A887B689A6102E07A887B689A6292
:1038C00000BF0C37BD465DF8047B704780B485B0FF
:1038D00000AF78600B467B807B685B69FB607A8811
:1038E000FB6813401A04FB68D9437B880B401A43DA
:1038F0007B689A6100BF1437BD465DF8047B704752
:1039000080B582B000AF0346FB80084B5A69FB8844
:103910001340002B06D0054AFB885361FB881846EC
:1039200000F006F800BF0837BD4680BD0004014026
:1039300080B483B000AF0346FB8000BF0C37BD46A8
:103940005DF8047B7047000080B5ADF5027D00AFE7
:1039500007F50273A3F50173186007F50273A3F569
:1039600001731B68002B02D1012301F03AB807F55F
:103970000273A3F501731B681B6803F00103002B9E
:1039800000F06F81B54B5B6803F00C03042B0CD087
:10399000B24B5B6803F00C03082B5CD1AF4B5B6848
:1039A00003F4C033B3F5803F55D14FF40033C7F86B
:1039B000F431D7F8F43193FAA3F3C7F8F031D7F81C
:1039C000F031B3FA83F3DBB25B09DBB243F00103FE
:1039D000DBB2012B02D1A14B1B6815E04FF4003381
:1039E000C7F8EC31D7F8EC3193FAA3F3C7F8E83114
:1039F0004FF40033C7F8E431D7F8E43193FAA3F376
:103A0000C7F8E031954B5B6A4FF40032C7F8DC2110
:103A1000D7F8DC2192FAA2F2C7F8D821D7F8D8213A
:103A2000B2FA82F2D2B242F02002D2B202F01F0207
:103A3000012101FA02F21340002B00F0118107F579
:103A40000273A3F501731B685B68002B40F00881CB
:103A5000012300F0C6BF07F50273A3F501731B68CD
:103A60005B68B3F5803F06D17C4B1B687B4A43F40F
:103A70008033136036E007F50273A3F501731B680A
:103A80005B68002B0CD1754B1B68744A23F48033A0
:103A90001360724B1B68714A23F48023136021E08A
:103AA00007F50273A3F501731B685B68B3F5A02FDC
:103AB0000CD16A4B1B68694A43F480231360674B3F
:103AC0001B68664A43F4803313600BE0634B1B684A
:103AD000624A23F480331360604B1B685F4A23F40F
:103AE0008023136007F50273A3F501731B685B68FD
:103AF000002B59D0FDF76CFEC7F800020AE0FDF775
:103B000067FE0246D7F80032D31A642B02D903238A
:103B100000F067BF4FF40033C7F8D431D7F8D43181
:103B200093FAA3F3C7F8D031D7F8D031B3FA83F3BF
:103B3000DBB25B09DBB243F00103DBB2012B02D144
:103B4000464B1B6815E04FF40033C7F8CC31D7F86B
:103B5000CC3193FAA3F3C7F8C8314FF40033C7F858
:103B6000C431D7F8C43193FAA3F3C7F8C0313B4B43
:103B70005B6A4FF40032C7F8BC21D7F8BC2192FA37
:103B8000A2F2C7F8B821D7F8B821B2FA82F2D2B2BD
:103B900042F02002D2B202F01F02012101FA02F229
:103BA0001340002BABD05CE0FDF712FEC7F800021B
:103BB0000AE0FDF70DFE0246D7F80032D31A642B57
:103BC00002D9032300F00DBF4FF40033C7F8B4311E
:103BD000D7F8B43193FAA3F3C7F8B031D7F8B031BE
:103BE000B3FA83F3DBB25B09DBB243F00103DBB270
:103BF000012B02D1194B1B6815E04FF40033C7F8B5
:103C0000AC31D7F8AC3193FAA3F3C7F8A8314FF42D
:103C10000033C7F8A431D7F8A43193FAA3F3C7F857
:103C2000A0310E4B5B6A4FF40032C7F89C21D7F8E5
:103C30009C2192FAA2F2C7F89821D7F89821B2FAFB
:103C400082F2D2B242F02002D2B202F01F0201216F
:103C500001FA02F21340002BABD102E00010024047
:103C600000BF07F50273A3F501731B681B6803F01F
:103C70000203002B00F07F81A74B5B6803F00C036D
:103C8000002B0CD0A44B5B6803F00C03082B73D102
:103C9000A14B5B6803F4C033B3F5004F6CD1022332
:103CA000C7F89431D7F8943193FAA3F3C7F8903159
:103CB000D7F89031B3FA83F3DBB25B09DBB243F0A0
:103CC0000103DBB2012B02D1934B1B6813E00223EB
:103CD000C7F88C31D7F88C3193FAA3F3C7F8883141
:103CE0000223C7F88431D7F8843193FAA3F3C7F8D5
:103CF0008031894B5B6A0222C7F87C21D7F87C218E
:103D000092FAA2F2C7F87821D7F87821B2FA82F2B3
:103D1000D2B242F02002D2B202F01F02012101FA17
:103D200002F21340002B0AD007F50273A3F50173CA
:103D30001B68DB68012B02D0012300F052BE764BDA
:103D40001B6823F0F80207F50273A3F501731B68E3
:103D50001B69F821C7F87411D7F8741191FAA1F111
:103D6000C7F87011D7F87011B1FA81F1C9B28B4060
:103D7000694913430B60FEE007F50273A3F5017375
:103D80001B68DB68002B00F088800123C7F86C31CA
:103D9000D7F86C3193FAA3F3C7F86831D7F86831D4
:103DA000B3FA83F3DBB203F1845303F584139B006E
:103DB0001A4601231360FDF70BFDC7F800020AE065
:103DC000FDF706FD0246D7F80032D31A022B02D9BE
:103DD000032300F006BE0223C7F86431D7F864312C
:103DE00093FAA3F3C7F86031D7F86031B3FA83F3DD
:103DF000DBB25B09DBB243F00103DBB2012B02D182
:103E0000454B1B6813E00223C7F85C31D7F85C31DF
:103E100093FAA3F3C7F858310223C7F85431D7F8FF
:103E2000543193FAA3F3C7F850313B4B5B6A02223B
:103E3000C7F84C21D7F84C2192FAA2F2C7F84821D2
:103E4000D7F84821B2FA82F2D2B242F02002D2B2BE
:103E500002F01F02012101FA02F21340002BAFD041
:103E60002D4B1B6823F0F80207F50273A3F50173CD
:103E70001B681B69F821C7F84411D7F8441191FA5F
:103E8000A1F1C7F84011D7F84011B1FA81F1C9B2D8
:103E90008B40214913430B606DE00123C7F83C318F
:103EA000D7F83C3193FAA3F3C7F83831D7F8383153
:103EB000B3FA83F3DBB203F1845303F584139B005D
:103EC0001A4600231360FDF783FCC7F800020AE0DE
:103ED000FDF77EFC0246D7F80032D31A022B02D936
:103EE000032300F07EBD0223C7F83431D7F8343104
:103EF00093FAA3F3C7F83031D7F83031B3FA83F32C
:103F0000DBB25B09DBB243F00103DBB2012B05D16D
:103F1000014B1B6816E000BF001002400223C7F8E7
:103F20002C31D7F82C3193FAA3F3C7F828310223A8
:103F3000C7F82431D7F8243193FAA3F3C7F8203116
:103F4000BF4B5B6A0222C7F81C21D7F81C2192FAEA
:103F5000A2F2C7F81821D7F81821B2FA82F2D2B229
:103F600042F02002D2B202F01F02012101FA02F255
:103F70001340002BACD107F50273A3F501731B6846
:103F80001B6803F00803002B00F0138107F5027390
:103F9000A3F501731B685B69002B7CD00123C7F874
:103FA0001431D7F8143193FAA3F3C7F81031D7F8C6
:103FB0001031B3FA83F3DBB21A46A24B13449B00D1
:103FC0001A4601231360FDF703FCC7F800020AE05C
:103FD000FDF7FEFB0246D7F80032D31A022B02D9B6
:103FE000032300F0FEBC0223C7F80C31D7F80C31D4
:103FF00093FAA3F207F50273A3F580731A6007F52D
:104000000273A3F5827302221A6007F50273A3F507
:1040100082731B6893FAA3F207F50273A3F5847306
:104020001A6007F50273A3F5867302221A6007F57A
:104030000273A3F586731B6893FAA3F207F5027364
:10404000A3F588731A607E4B5A6A07F50273A3F5CD
:104050008A730221196007F50273A3F58A731B683E
:1040600093FAA3F107F50273A3F58C73196007F5B2
:104070000273A3F58C731B68B3FA83F3DBB243F0CE
:104080006003DBB203F01F03012101FA03F31340C5
:10409000002B9DD08DE007F50273A3F58E730122EE
:1040A0001A6007F50273A3F58E731B6893FAA3F2E7
:1040B00007F50273A3F590731A6007F50273A3F571
:1040C00090731B68B3FA83F3DBB21A465D4B13445B
:1040D0009B001A4600231360FDF77AFBC7F8000225
:1040E0000AE0FDF775FB0246D7F80032D31A022B1F
:1040F00002D9032300F075BC07F50273A3F5927390
:1041000002221A6007F50273A3F592731B6893FAF3
:10411000A3F207F50273A3F594731A6007F502730F
:10412000A3F5967302221A6007F50273A3F596733E
:104130001B6893FAA3F207F50273A3F598731A604C
:1041400007F50273A3F59A7302221A6007F502734A
:10415000A3F59A731B6893FAA3F207F50273A3F50C
:104160009C731A60364B5A6A07F50273A3F59E7367
:104170000221196007F50273A3F59E731B6893FA79
:10418000A3F107F50273A3F5A073196007F5027395
:10419000A3F5A0731B68B3FA83F3DBB243F06003AB
:1041A000DBB203F01F03012101FA03F31340002BDC
:1041B00097D107F50273A3F501731B681B6803F021
:1041C0000403002B00F0A581002387F807321C4B65
:1041D000DB6903F08053002B16D1194BDB69184AB9
:1041E00043F08053D361164BDB6903F0805207F52F
:1041F0000273A3F5FE731A6007F50273A3F5FE734D
:104200001B68012387F807320F4B1B6803F4807388
:10421000002B21D10C4B1B680B4A43F480731360B5
:10422000FDF7D6FAC7F8000210E0FDF7D1FA024612
:10423000D7F80032D31A642B08D90323D1E300BF87
:104240000010024020819010007000408D4B1B68D0
:1042500003F48073002BE8D007F50273A3F5017314
:104260001B689B68012B06D1874B1B6A864A43F06B
:104270000103136235E007F50273A3F501731B68B0
:104280009B68002B0CD1804B1B6A7F4A23F00103F3
:1042900013627D4B1B6A7C4A23F00403136220E007
:1042A00007F50273A3F501731B689B68052B0CD1FE
:1042B000754B1B6A744A43F004031362724B1B6A0A
:1042C000714A43F0010313620BE06F4B1B6A6E4AA5
:1042D00023F0010313626C4B1B6A6B4A23F0040347
:1042E000136207F50273A3F501731B689B68002B2B
:1042F00000F08180FDF76CFAC7F800020BE0FDF7D3
:1043000067FA0246D7F80032D31A41F28832934254
:1043100001D9032365E307F50273A3F5A273022213
:104320001A6007F50273A3F5A2731B6893FAA3F250
:1043300007F50273A3F5A4731A6007F50273A3F5DA
:10434000A67302221A6007F50273A3F5A6731B6811
:1043500093FAA3F207F50273A3F5A8731A6007F5A1
:104360000273A3F5A8731B68B3FA83F3DBB25B098E
:10437000DBB243F00203DBB2022B02D1424B1B6AD9
:1043800013E007F50273A3F5AA7302221A6007F57A
:104390000273A3F5AA731B6893FAA3F207F50273DD
:1043A000A3F5AC731A60384B5B6A07F50272A2F58D
:1043B000AE720221116007F50272A2F5AE721268A8
:1043C00092FAA2F107F50272A2F5B072116007F538
:1043D0000272A2F5B0721268B2FA82F2D2B242F060
:1043E0004002D2B202F01F02012101FA02F2134090
:1043F000002B84D083E0FDF7EBF9C7F800020BE057
:10440000FDF7E6F90246D7F80032D31A41F28832B6
:10441000934201D90323E4E207F50273A3F5B273D3
:1044200002221A6007F50273A3F5B2731B6893FAB0
:10443000A3F207F50273A3F5B4731A6007F50273CC
:10444000A3F5B67302221A6007F50273A3F5B673DB
:104450001B6893FAA3F207F50273A3F5B8731A6009
:1044600007F50273A3F5B8731B68B3FA83F3DBB2E5
:104470005B09DBB243F00203DBB2022B06D1024B35
:104480001B6A17E0007000400010024007F502733D
:10449000A3F5BA7302221A6007F50273A3F5BA7383
:1044A0001B6893FAA3F207F50273A3F5BC731A60B5
:1044B000B34B5B6A07F50272A2F5BE72022111606E
:1044C00007F50272A2F5BE72126892FAA2F107F520
:1044D0000272A2F5C072116007F50272A2F5C072F5
:1044E0001268B2FA82F2D2B242F04002D2B202F0C4
:1044F0001F02012101FA02F21340002B80D197F82C
:104500000732012B05D19E4BDB699D4A23F0805376
:10451000D36107F50273A3F501731B689B69002B38
:1045200000F05E82964B5B6803F00C03082B00F0F2
:104530001F8207F50273A3F501731B689B69022BA9
:1045400040F0708107F50273A3F5C2734FF08072DB
:104550001A6007F50273A3F5C2731B6893FAA3F2FE
:1045600007F50273A3F5C4731A6007F50273A3F588
:10457000C4731B68B3FA83F3DBB203F1845303F50E
:1045800084139B001A4600231360FDF721F9C7F836
:10459000000209E0FDF71CF90246D7F80032D31AF1
:1045A000022B01D903231CE207F50273A3F5C6739E
:1045B0004FF000721A6007F50273A3F5C6731B680B
:1045C00093FAA3F207F50273A3F5C8731A6007F50F
:1045D0000273A3F5C8731B68B3FA83F3DBB25B09FC
:1045E000DBB243F00103DBB2012B02D1644B1B6849
:1045F00027E007F50273A3F5CA734FF000721A6043
:1046000007F50273A3F5CA731B6893FAA3F207F5C3
:104610000273A3F5CC731A6007F50273A3F5CE738A
:104620004FF000721A6007F50273A3F5CE731B6892
:1046300093FAA3F207F50273A3F5D0731A60504BF7
:104640005B6A07F50272A2F5D2724FF00071116039
:1046500007F50272A2F5D272126892FAA2F107F57A
:104660000272A2F5D472116007F50272A2F5D4723B
:104670001268B2FA82F2D2B242F02002D2B202F052
:104680001F02012101FA02F21340002B82D13C4BA0
:10469000DB6A23F00F0207F50273A3F501731B68B1
:1046A0005B6A37491343CB62354B5B6823F4761260
:1046B00007F50273A3F501731B68196A07F5027306
:1046C000A3F501731B68DB690B432D4913434B6052
:1046D00007F50273A3F5D6734FF080721A6007F5E1
:1046E0000273A3F5D6731B6893FAA3F207F502735E
:1046F000A3F5D8731A6007F50273A3F5D8731B6886
:10470000B3FA83F3DBB203F1845303F584139B0004
:104710001A4601231360FDF75BF8C7F8000209E0B1
:10472000FDF756F80246D7F80032D31A022B01D90A
:10473000032356E107F50273A3F5DA734FF0007215
:104740001A6007F50273A3F5DA731B6893FAA3F2F4
:1047500007F50273A3F5DC731A6007F50273A3F57E
:10476000DC731B68B3FA83F3DBB25B09DBB243F0A3
:104770000103DBB2012B05D1014B1B682AE000BF0E
:104780000010024007F50273A3F5DE734FF00072CC
:104790001A6007F50273A3F5DE731B6893FAA3F2A0
:1047A00007F50273A3F5E0731A6007F50273A3F52A
:1047B000E2734FF000721A6007F50273A3F5E2731B
:1047C0001B6893FAA3F207F50273A3F5E4731A606A
:1047D000864B5B6A07F50272A2F5E6724FF0007134
:1047E000116007F50272A2F5E672126892FAA2F160
:1047F00007F50272A2F5E872116007F50272A2F5E0
:10480000E8721268B2FA82F2D2B242F02002D2B258
:1048100002F01F02012101FA02F21340002B3FF4C3
:104820007FAFDDE007F50273A3F5EA734FF0807206
:104830001A6007F50273A3F5EA731B6893FAA3F2F3
:1048400007F50273A3F5EC731A6007F50273A3F57D
:10485000EC731B68B3FA83F3DBB203F1845303F503
:1048600084139B001A4600231360FCF7B1FFC7F8BE
:10487000000209E0FCF7ACFF0246D7F80032D31A79
:10488000022B01D90323ACE007F50273A3F5EE7305
:104890004FF000721A6007F50273A3F5EE731B6800
:1048A00093FAA3F207F50273A3F5F0731A6007F504
:1048B0000273A3F5F0731B68B3FA83F3DBB25B09F1
:1048C000DBB243F00103DBB2012B02D1474B1B6883
:1048D00027E007F50273A3F5F2734FF000721A6038
:1048E00007F50273A3F5F2731B6893FAA3F207F5B9
:1048F0000273A3F5F4731A6007F50273A3F5F67358
:104900004FF000721A6007F50273A3F5F6731B6887
:1049100093FAA3F207F50273A3F5F8731A60334B09
:104920005B6A07F50272A2F5FA724FF0007111602E
:1049300007F50272A2F5FA72126892FAA2F107F56F
:104940000272A2F5FC72116007F50272A2F5FC7208
:104950001268B2FA82F2D2B242F02002D2B202F06F
:104960001F02012101FA02F21340002B82D137E02D
:1049700007F50273A3F501731B689B69012B01D135
:1049800001232EE0194B5B68C7F8FC31174BDB6A3B
:10499000C7F8F831D7F8FC3103F4C03207F50273D9
:1049A000A3F501731B68DB699A4217D1D7F8FC3174
:1049B00003F4701207F50273A3F501731B681B6AF9
:1049C0009A420BD1D7F8F83103F00F0207F50273C2
:1049D000A3F501731B685B6A9A4201D0012300E0D2
:1049E0000023184607F50277BD4680BD001002403F
:1049F00080B59EB000AF7860396000237B677B682C
:104A0000002B01D1012362E1904B1B6803F00703E7
:104A10003A689A4210D98D4B1B6823F007028B49E4
:104A20003B6813430B60894B1B6803F007033A682C
:104A30009A4201D001234AE17B681B6803F002031C
:104A4000002B08D0824B5B6823F0F0027B689B68E8
:104A50007F4913434B607B681B6803F00103002B05
:104A600000F0DC807B685B68012B3CD14FF40033A5
:104A70003B673B6F93FAA3F3FB66FB6EB3FA83F3DA
:104A8000DBB25B09DBB243F00103DBB2012B02D1E5
:104A90006F4B1B680FE04FF40033BB66BB6E93FA9D
:104AA000A3F37B664FF400333B663B6E93FAA3F3AC
:104AB000FB65674B5B6A4FF40032BA65BA6D92FAD8
:104AC000A2F27A657A6DB2FA82F2D2B242F0200294
:104AD000D2B202F01F02012101FA02F21340002BB0
:104AE0007BD10123F3E07B685B68022B3CD14FF064
:104AF00000733B653B6D93FAA3F3FB64FB6CB3FA65
:104B000083F3DBB25B09DBB243F00103DBB2012BC1
:104B100002D14F4B1B680FE04FF00073BB64BB6CBE
:104B200093FAA3F37B644FF000733B643B6C93FAFE
:104B3000A3F3FB63464B5B6A4FF00072BA63BA6B38
:104B400092FAA2F27A637A6BB2FA82F2D2B242F0AD
:104B50002002D2B202F01F02012101FA02F2134038
:104B6000002B3AD10123B2E002233B633B6B93FA63
:104B7000A3F3FB62FB6AB3FA83F3DBB25B09DBB23C
:104B800043F00103DBB2012B02D1314B1B680DE076
:104B90000223BB62BB6A93FAA3F37B6202233B62EC
:104BA0003B6A93FAA3F3FB61294B5B6A0222BA6169
:104BB000BA6992FAA2F27A617A69B2FA82F2D2B250
:104BC00042F02002D2B202F01F02012101FA02F2E9
:104BD0001340002B01D1012379E01D4B5B6823F0CA
:104BE00003027B685B681A4913434B60FCF7F0FDD6
:104BF00078670AE0FCF7ECFD02467B6FD31A41F2BE
:104C00008832934201D9032361E0114B5B6803F0C2
:104C10000C027B685B689B009A42EBD10B4B1B68D4
:104C200003F007033A689A4214D2084B1B6823F03A
:104C3000070206493B6813430B60044B1B6803F0F3
:104C400007033A689A4205D0012340E00020024061
:104C5000001002407B681B6803F00403002B08D09F
:104C60001D4B5B6823F4E0627B68DB681A491343E1
:104C70004B607B681B6803F00803002B09D0164BC0
:104C80005B6823F460527B681B69DB0012491343A5
:104C90004B6000F029F801460F4B5B6803F0F0030E
:104CA000F0223A613A6992FAA2F2FA60FA68B2FA2C
:104CB00082F2D2B2D340094AD35C21FA03F3084A04
:104CC0001360084B1B681846FCF77EFC002318464F
:104CD0007837BD4680BD00BF00100240AC9600088A
:104CE000000000200400002080B487B000AF002343
:104CF000FB600023BB6000237B6100237B600023FB
:104D00003B611F4B5B68FB60FB6803F00C03042BEB
:104D100002D0082B03D029E01A4B3B6129E0FB6845
:104D20009B0C03F00F03184AD35C7B60144BDB6AC7
:104D300003F00F03154AD35CBB60FB6803F48033B8
:104D4000002B08D00F4ABB68B2FBF3F27B6802FB72
:104D500003F37B6107E00B4ABB68B2FBF3F27B68AD
:104D600002FB03F37B617B693B6102E0054B3B6126
:104D700000BF3B6918461C37BD465DF8047B704791
:104D80000010024000127A00C4960008D496000871
:104D900080B400AF034B1B681846BD465DF8047B2A
:104DA000704700BF0000002080B582B000AFFFF761
:104DB000EFFF01460B4B5B6803F460534FF4605206
:104DC0007A607A6892FAA2F23A603A68B2FA82F2AB
:104DD000D2B2D340044AD35C21FA03F31846083711
:104DE000BD4680BD00100240BC96000880B483B070
:104DF00000AF786039607B680F221A60124B5B68E5
:104E000003F003027B685A600F4B5B6803F0F0020B
:104E10007B689A600C4B5B6803F4E0627B68DA6045
:104E2000094B5B68DB0803F4E0627B681A61074B9F
:104E30001B6803F007023B681A6000BF0C37BD46D1
:104E40005DF8047B704700BF001002400020024064
:104E500080B592B000AF786000233B640023FB6311
:104E6000002387F847307B681B6803F48033002BEE
:104E700000F0D4804E4BDB6903F08053002B0ED141
:104E80004B4BDB694A4A43F08053D361484BDB69A3
:104E900003F08053BB60BB68012387F84730454B64
:104EA0001B6803F48073002B18D1424B1B68414AE6
:104EB00043F480731360FCF78BFC386408E0FCF764
:104EC00087FC02463B6CD31A642B01D90323D6E13D
:104ED000384B1B6803F48073002BF0D0344B1B6AF3
:104EE00003F44073FB63FB6B002B00F084807B6852
:104EF0005B6803F44073FA6B9A427CD02C4B1B6ABC
:104F000023F44073FB634FF480333B633B6B93FAB2
:104F1000A3F3FB62FB6AB3FA83F3DBB21A46264BB8
:104F200013449B001A46012313604FF48033BB6384
:104F3000BB6B93FAA3F37B637B6BB3FA83F3DBB2B4
:104F40001A461D4B13449B001A4600231360184A4F
:104F5000FB6B1362FB6B03F00103002B4BD0FCF7E0
:104F600037FC38640AE0FCF733FC02463B6CD31A8A
:104F700041F28832934201D9032380E10223BB62CC
:104F8000BB6A93FAA3F37B6202233B623B6A93FA08
:104F9000A3F3FB61FB69B3FA83F3DBB25B09DBB21A
:104FA00043F00203DBB2022B08D1014B1B6A0DE078
:104FB0000010024000700040008190100223BB618D
:104FC000BB6993FAA3F37B619A4B5B6A02223A6155
:104FD0003A6992FAA2F2FA60FA68B2FA82F2D2B2AE
:104FE00042F04002D2B202F01F02012101FA02F2A5
:104FF0001340002BB7D08F4B1B6A23F440727B68A1
:105000005B688C4913430B6297F84730012B05D13D
:10501000884BDB69874A23F08053D3617B681B6828
:1050200003F00103002B08D0824B1B6B23F003021B
:105030007B689B687F4913430B637B681B6803F0A5
:105040000203002B08D07B4B1B6B23F440327B68A0
:10505000DB68784913430B637B681B6803F0040328
:10506000002B08D0734B1B6B23F440227B681B6919
:10507000704913430B637B681B6803F02003002B0C
:1050800008D06C4B1B6B23F010027B68DB6969490D
:1050900013430B637B681B6803F40033002B08D0B9
:1050A000644B5B6823F480027B685B6D614913434A
:1050B0004B607B681B6803F04003002B08D05D4BFE
:1050C0001B6B23F020027B681B6A5A4913430B6356
:1050D0007B681B6803F48023002B08D0554B1B6BA7
:1050E00023F040027B685B6A524913430B637B6881
:1050F0001B6803F00803002B08D04E4B1B6B23F4F6
:1051000040127B685B694B4913430B637B681B68E8
:1051100003F01003002B08D0464B1B6B23F4400216
:105120007B689B69434913430B637B681B6803F4EB
:105130000073002B08D03F4B5B6823F400027B68B0
:105140001B6B3C4913434B607B681B6803F0800377
:10515000002B08D0374BDB6A23F4F8727B689B6A1C
:1051600034491343CB627B681B6803F48073002BC4
:1051700008D0304BDB6A23F478527B68DB6A2D4918
:105180001343CB627B681B6803F48053002B08D069
:10519000284B1B6B23F480727B685B6B25491343A0
:1051A0000B637B681B6803F40053002B08D0214B72
:1051B0001B6B23F400727B681B6C1E4913430B634B
:1051C0007B681B6803F48013002B08D0194B1B6B02
:1051D00023F080727B689B6B164913430B637B68DB
:1051E0001B6803F40013002B08D0124B1B6B23F039
:1051F00000727B68DB6B0F4913430B637B681B6892
:1052000003F48003002B08D00A4B1B6B23F480624D
:105210007B685B6C074913430B637B681B6803F473
:105220000003002B0CD0034B1B6B23F400627B6844
:1052300002E000BF001002409B6C134913430B6354
:105240007B681B6803F08073002B08D00E4B1B6B30
:1052500023F400527B68DB6C0B4913430B637B68C0
:105260001B6803F00073002B08D0074B1B6B23F463
:1052700000427B681B6D044913430B6300231846EF
:105280004837BD4680BD00BF0010024080B582B0E7
:1052900000AF78607B68002B01D1012349E07B6877
:1052A00093F83D30DBB2002B06D17B68002283F8F7
:1052B0003C20786800F041F87B68022283F83D20AA
:1052C0007B681A687B6804331946104600F0DAF9E7
:1052D0007B68012283F848207B68012283F83E2006
:1052E0007B68012283F83F207B68012283F84020FD
:1052F0007B68012283F841207B68012283F84220E9
:105300007B68012283F843207B68012283F84420D4
:105310007B68012283F845207B68012283F84620C0
:105320007B68012283F847207B68012283F83D20B7
:10533000002318460837BD4680BD80B483B000AF57
:10534000786000BF0C37BD465DF8047B70470000F5
:1053500080B485B000AF78607B6893F83D30DBB2F5
:10536000012B01D001234FE07B68022283F83D200E
:105370007B681B68DA687B681B6842F00102DA60B0
:105380007B681B68234A93421DD07B681B68B3F17E
:10539000804F18D07B681B681F4A934213D07B68EC
:1053A0001B681E4A93420ED07B681B681C4A9342BE
:1053B00009D07B681B681B4A934204D07B681B683A
:1053C000194A934215D17B681B689A68174B1340A2
:1053D000FB60FB68062B15D0FB68B3F5803F11D04E
:1053E0007B681B681A687B681B6842F001021A60C0
:1053F00008E07B681B681A687B681B6842F0010242
:105400001A6000E000BF002318461437BD465DF85F
:10541000047B7047002C014000040040000800405D
:1054200000340140004001400050014007000100ED
:1054300080B584B000AF78607B681B68DB68FB6078
:105440007B681B681B69BB60BB6803F00203002B11
:1054500020D0FB6803F00203002B1BD07B681B6885
:105460006FF002021A617B6801221A777B681B6861
:105470009B6903F00303002B03D0786800F0E4F885
:1054800005E0786800F0D6F8786800F0E7F87B6807
:1054900000221A77BB6803F00403002B20D0FB68BE
:1054A00003F00403002B1BD07B681B686FF0040221
:1054B0001A617B6802221A777B681B689B6903F478
:1054C0004073002B03D0786800F0BEF805E07868E0
:1054D00000F0B0F8786800F0C1F87B6800221A7715
:1054E000BB6803F00803002B20D0FB6803F008031F
:1054F000002B1BD07B681B686FF008021A617B6869
:1055000004221A777B681B68DB6903F00303002B16
:1055100003D0786800F098F805E0786800F08AF821
:10552000786800F09BF87B6800221A77BB6803F06C
:105530001003002B20D0FB6803F01003002B1BD0BE
:105540007B681B686FF010021A617B6808221A776B
:105550007B681B68DB6903F44073002B03D0786819
:1055600000F072F805E0786800F064F8786800F000
:1055700075F87B6800221A77BB6803F00103002BE3
:105580000CD0FB6803F00103002B07D07B681B687D
:105590006FF001021A617868FBF722FFBB6803F025
:1055A0008003002B0CD0FB6803F08003002B07D096
:1055B0007B681B686FF080021A61786800F016F94A
:1055C000BB6803F48073002B0CD0FB6803F08003EE
:1055D000002B07D07B681B686FF480721A617868B3
:1055E00000F00EF9BB6803F04003002B0CD0FB6801
:1055F00003F04003002B07D07B681B686FF040026C
:105600001A61786800F034F8BB6803F02003002BBF
:105610000CD0FB6803F02003002B07D07B681B68CD
:105620006FF020021A61786800F0D6F800BF1037DA
:10563000BD4680BD80B483B000AF786000BF0C373A
:10564000BD465DF8047B704780B483B000AF7860DE
:1056500000BF0C37BD465DF8047B704780B483B053
:1056600000AF786000BF0C37BD465DF8047B704723
:1056700080B483B000AF786000BF0C37BD465DF8E2
:10568000047B704780B485B000AF786039607B6878
:105690001B68FB607B68484A934213D07B68B3F178
:1056A000804F0FD07B68454A93420BD07B68444AB9
:1056B000934207D07B68434A934203D07B68424AB7
:1056C000934208D1FB6823F07003FB603B685B6882
:1056D000FA681343FB607B68374A93421FD07B68AC
:1056E000B3F1804F1BD07B68344A934217D07B685C
:1056F000334A934213D07B68324A93420FD07B687F
:10570000324A93420BD07B68314A934207D07B6880
:10571000304A934203D07B682B4A934208D1FB68FE
:1057200023F44073FB603B68DB68FA681343FB605B
:10573000FB6823F080023B685B691343FB607B6876
:10574000FA681A603B689A687B68DA623B681A6894
:105750007B689A627B68184A934213D07B68194A27
:1057600093420FD07B68194A93420BD07B68184A4A
:10577000934207D07B68174A934203D07B68124A52
:10578000934203D13B681A697B681A637B680122E4
:105790005A617B681B6903F00103012B05D17B680B
:1057A0001B6923F001027B681A6100BF1437BD46F4
:1057B0005DF8047B704700BF002C014000040040EE
:1057C000000800400034014000500140004001400A
:1057D000004401400048014080B483B000AF7860CD
:1057E00000BF0C37BD465DF8047B704780B483B0C2
:1057F00000AF786000BF0C37BD465DF8047B704792
:1058000080B483B000AF786000BF0C37BD465DF850
:10581000047B704780B485B000AF0346FB80002353
:10582000FB60B7F90630842B05D0B7F90620FB687A
:1058300013440333FB60FB6818461437BD465DF81C
:10584000047B704780B500AF00F0F4FA00231846DF
:1058500080BDF0B589B004AF786039607B685B6962
:10586000002B20D07B689B69002B1CD07B685C6878
:105870007B681D687B681E697B68B3F90830184631
:10588000FFF7C8FF01467B685B697A6892690292FC
:10589000019300913B6832462946204600F0EDF81E
:1058A0000346FB601CE07B685C687B681D687B6866
:1058B0001B699EB27B68B3F908301846FFF7AAFF50
:1058C000024607F10C03019300923B6832462946D9
:1058D000204600F031F90346012B01D0002300E0FF
:1058E000FB6818461437BD46F0BD80B584B000AFE4
:1058F00078607B68FB60FB68002B01D0FB6800E0F0
:105900000123184600F060FA002318461037BD4600
:1059100080BD80B483B000AF78607B6803F108027B
:105920007B685A607B684FF0FF329A607B6803F1B6
:1059300008027B68DA607B6803F108027B681A6101
:105940007B6800221A6000BF0C37BD465DF8047BFF
:10595000704780B483B000AF78607B6800221A6122
:1059600000BF0C37BD465DF8047B704780B485B03E
:1059700000AF786039607B685B68FB603B68FA6801
:105980005A60FB689A683B689A60FB689B683A6853
:105990005A60FB683A689A603B687A681A617B686B
:1059A0001B685A1C7B681A6000BF1437BD465DF83F
:1059B000047B704780B485B000AF786039603B6885
:1059C0001B68BB60BB68B3F1FF3F03D17B681B69F9
:1059D000FB600CE07B680833FB6002E0FB685B68FF
:1059E000FB60FB685B681B68BA689A42F6D2FB688A
:1059F0005A683B685A603B685B683A689A603B68E3
:105A0000FA689A60FB683A685A603B687A681A617B
:105A10007B681B685A1C7B681A6000BF1437BD4640
:105A20005DF8047B704780B485B000AF78607B6818
:105A30001B69FB607B685B687A6892689A607B6828
:105A40009B687A6852685A60FB685B687A689A4219
:105A500003D17B689A68FB685A607B6800221A61F0
:105A6000FB681B685A1EFB681A60FB681B681846B7
:105A70001437BD465DF8047B704780B58EB004AF27
:105A8000F860B9607A603B607B6B002B0BD14FF004
:105A9000500383F31188BFF36F8FBFF34F8F3B62C7
:105AA00000BF00BFFDE7BB6B002B0BD14FF05003D5
:105AB00083F31188BFF36F8FBFF34F8FFB6100BF7C
:105AC00000BFFDE7A0233B613B69A02B0BD04FF04B
:105AD000500383F31188BFF36F8FBFF34F8FBB6108
